:100000000C942A000C9447000C9447000C94470071
:100010000C9447000C9447000C9447000C94470044
:100020000C9447000C9447000C9447000C94470034
:100030000C9447000C9447000C9447000C94470024
:100040000C9447000C9447000C9447000C94470014
:100050000C94470011241FBECFE5D8E0DEBFCDBF12
:1000600014E0A0E6B0E0E8E2F7E102C005900D92EE
:10007000A636B107D9F714E0A6E6B4E001C01D9298
:10008000AC38B107E1F70E942A0B0C94920B0C9448
:1000900000000F931F93DF93CF9300D00F92CDB743
:1000A000DEB79B838A8319828981806889838981ED
:1000B0008F7B898389818F7D898389818F7E8983E5
:1000C0008981877F898389818B7F89838981826008
:1000D0008983898184608983E0E4F0E08981808379
:1000E00009E210E08A819B81CC01A0E0B0E0880F9A
:1000F000991FAA1FBB1F880F991FAA1FBB1F880F1C
:10010000991FAA1FBB1F880F991FAA1FBB1F9C0105
:10011000AD0180E092E1AAE7B0E0BC01CD010E9410
:10012000700BDA01C9018150F8018083AAE2B0E0C6
:10013000EAE2F0E0808180618C93AAE2B0E0EAE23A
:10014000F0E0808188608C930F900F900F90CF919A
:10015000DF911F910F910895DF93CF930F92CDB749
:10016000DEB78983EBE2F0E0808182958695877027
:10017000882F90E0817090700097A1F3ECE2F0E09E
:10018000898180830F90CF91DF910895DF93CF9382
:1001900000D000D0CDB7DEB79C838B831A82198242
:1001A0000FC02B813C8189819A81F901E80FF91FE9
:1001B00080810E94AC0089819A8101969A8389830B
:1001C0002B813C8189819A81F901E80FF91F808197
:1001D000882339F70F900F900F900F90CF91DF91F8
:1001E0000895DF93CF930F92CDB7DEB7EBE2F0E047
:1001F00080818823DCF7ECE2F0E0808189838981CB
:100200000F90CF91DF910895DF93CF9300D0CDB7BA
:10021000DEB71982EBE2F0E080818823DCF70BC0C7
:100220008981882F90E0FC01EA59FB4F8A81808305
:1002300089818F5F89830E94F1008A838A818D3052
:1002400079F78981882F90E0FC01EA59FB4F1082F1
:1002500086E694E00F900F90CF91DF910895EF9292
:10026000FF920F931F93DF93CF93CDB7DEB72C97F9
:100270000FB6F894DEBF0FBECDBF69877A878B8734
:100280009C8781E090E0A0E0B0E08D839E83AF8307
:10029000B88789859A85AB85BC850097A105B1058E
:1002A000D1F580E30E94AC0036C08D819E81AF8184
:1002B000B8852AE030E040E050E0BC01CD010E946A
:1002C000310B7B018C0189859A85AB85BC852AE041
:1002D00030E040E050E0BC01CD010E94700BDC0139
:1002E000CB018E0D9F1DA01FB11F8D839E83AF83F9
:1002F000B88789859A85AB85BC852AE030E040E0E7
:1003000050E0BC01CD010E94700BDA01C901898760
:100310009A87AB87BC8789859A85AB85BC85009712
:10032000A105B10511F628C08D819E81AF81B885E8
:100330002AE030E040E050E0BC01CD010E94700BAB
:10034000DC01CB0189839A83AB83BC838981805D87
:100350000E94AC008D819E81AF81B8852AE030E09B
:1003600040E050E0BC01CD010E94700BDA01C901F0
:100370008D839E83AF83B8878D819E81AF81B88541
:1003800082309105A105B10578F62C960FB6F89448
:10039000DEBF0FBECDBFCF91DF911F910F91FF90B8
:1003A000EF900895DF93CF93CDB7DEB7A3E5B0E02C
:1003B000E3E5F0E0808180648C93A3E5B0E0E3E5C1
:1003C000F0E0808188608C93A3E5B0E0E3E5F0E0A5
:1003D000808180628C93A3E5B0E0E3E5F0E080816A
:1003E0008F7E8C93A3E5B0E0E3E5F0E0808184604C
:1003F0008C93A3E5B0E0E3E5F0E080818D7F8C9302
:10040000A3E5B0E0E3E5F0E080818E7F8C93A9E581
:10041000B0E0E9E5F0E080818D7F8C93CF91DF91B2
:1004200008950F931F93DF93CF930F92CDB7DEB74D
:1004300089830CE510E08981882F90E0A0E0B0E08E
:100440002FEF30E040E050E0BC01CD010E94310BC5
:10045000DC01CB0124E630E040E050E0BC01CD01FE
:100460000E94700BDA01C901F80180830F90CF91CF
:10047000DF911F910F910895DF93CF93CDB7DEB732
:10048000A3E5B0E0E3E5F0E080818F7D8C93A3E508
:10049000B0E0E3E5F0E080818F7E8C93A3E5B0E0EF
:1004A000E3E5F0E080818B7F8C93A3E5B0E0E3E5AA
:1004B000F0E080818D7F8C93A3E5B0E0E3E5F0E090
:1004C00080818E7F8C93CF91DF910895DF93CF93BE
:1004D000CDB7DEB7A5E4B0E0E5E4F0E080818F7B46
:1004E0008C93A5E4B0E0E5E4F0E08081877F8C9315
:1004F000A5E4B0E0E5E4F0E080818F7D8C93A5E495
:10050000B0E0E5E4F0E080818F7E8C93A9E5B0E077
:10051000E9E5F0E080818F7B8C93CF91DF910895A6
:10052000DF93CF9300D000D000D0CDB7DEB79E834D
:100530008D83A5E4B0E0E5E4F0E0808184608C93F5
:10054000A5E4B0E0E5E4F0E080818D7F8C93A5E444
:10055000B0E0E5E4F0E080818E7F8C9381E090E074
:100560009C838B838D819E81FC01F695E7958D811F
:100570009E8128EE33E0B9010E945C0BCB019C0107
:10058000C901880F991F820F931F880F991F880F29
:10059000991F9F01281B390BC9019A83898319C0B0
:1005A000E8E5F0E080818295869586958370882FB6
:1005B00090E081709070882361F08B819C8101961E
:1005C0009C838B83A8E5B0E0E8E5F0E0808180645F
:1005D0008C932B813C8189819A812817390701F7F7
:1005E00026960FB6F894DEBF0FBECDBFCF91DF9138
:1005F0000895DF93CF9300D000D00F92CDB7DEB730
:1006000089836A834B838981282F30E03D832C8343
:100610008C819D818130910509F447C02C813D81F9
:10062000223031052CF48C819D81009771F0CBC074
:100630002C813D812230310509F467C08C819D8178
:100640008330910509F491C0BEC08B818823A9F441
:10065000AAE3B0E0EAE3F0E08081482F8A81282F06
:1006600030E081E090E0022E02C0880F991F0A94CA
:10067000E2F7809584238C93A6C08B81813009F0AA
:10068000A2C0AAE3B0E0EAE3F0E08081482F8A81CB
:10069000282F30E081E090E0022E02C0880F991FE1
:1006A0000A94E2F7842B8C938EC08B818823A9F463
:1006B000A7E3B0E0E7E3F0E08081482F8A81282FAC
:1006C00030E081E090E0022E02C0880F991F0A946A
:1006D000E2F7809584238C9376C08B81813009F07A
:1006E00072C0A7E3B0E0E7E3F0E08081482F8A81A1
:1006F000282F30E081E090E0022E02C0880F991F81
:100700000A94E2F7842B8C935EC08B818823A9F432
:10071000A4E3B0E0E4E3F0E08081482F8A81282F51
:1007200030E081E090E0022E02C0880F991F0A9409
:10073000E2F7809584238C9346C08B81813009F049
:1007400042C0A4E3B0E0E4E3F0E08081482F8A8176
:10075000282F30E081E090E0022E02C0880F991F20
:100760000A94E2F7842B8C932EC08B818823A9F402
:10077000A1E3B0E0E1E3F0E08081482F8A81282FF7
:1007800030E081E090E0022E02C0880F991F0A94A9
:10079000E2F7809584238C9316C08B81813099F485
:1007A000A1E3B0E0E1E3F0E08081482F8A81282FC7
:1007B00030E081E090E0022E02C0880F991F0A9479
:1007C000E2F7842B8C930F900F900F900F900F9067
:1007D000CF91DF910895DF93CF9300D000D0CDB7B4
:1007E000DEB789836A838981282F30E03C832B839D
:1007F0008B819C8181309105D1F02B813C8122300D
:1008000031052CF48B819C81009761F01EC02B81F7
:100810003C812230310581F08B819C8183309105B0
:1008200081F013C0EAE3F0E08A8180830EC0E7E341
:10083000F0E08A81808309C0E4E3F0E08A8180836C
:1008400004C0E1E3F0E08A8180830F900F900F9065
:100850000F90CF91DF910895DF93CF9300D000D018
:100860000F92CDB7DEB789836A834B838981282FA6
:1008700030E03D832C838C819D818130910509F48A
:1008800047C02C813D81223031052CF48C819D8123
:10089000009771F0CBC02C813D812230310509F4E5
:1008A00067C08C819D818330910509F491C0BEC0E1
:1008B0008B818823A9F4ABE3B0E0EBE3F0E0808127
:1008C000482F8A81282F30E081E090E0022E02C07C
:1008D000880F991F0A94E2F7809584238C93A6C011
:1008E0008B81813009F0A2C0ABE3B0E0EBE3F0E034
:1008F0008081482F8A81282F30E081E090E0022E0D
:1009000002C0880F991F0A94E2F7842B8C938EC043
:100910008B818823A9F4A8E3B0E0E8E3F0E08081CC
:10092000482F8A81282F30E081E090E0022E02C01B
:10093000880F991F0A94E2F7809584238C9376C0E0
:100940008B81813009F072C0A8E3B0E0E8E3F0E009
:100950008081482F8A81282F30E081E090E0022EAC
:1009600002C0880F991F0A94E2F7842B8C935EC013
:100970008B818823A9F4A5E3B0E0E5E3F0E0808172
:10098000482F8A81282F30E081E090E0022E02C0BB
:10099000880F991F0A94E2F7809584238C9346C0B0
:1009A0008B81813009F042C0A5E3B0E0E5E3F0E0DF
:1009B0008081482F8A81282F30E081E090E0022E4C
:1009C00002C0880F991F0A94E2F7842B8C932EC0E3
:1009D0008B818823A9F4A2E3B0E0E2E3F0E0808118
:1009E000482F8A81282F30E081E090E0022E02C05B
:1009F000880F991F0A94E2F7809584238C9316C080
:100A00008B81813099F4A2E3B0E0E2E3F0E08081F1
:100A1000482F8A81282F30E081E090E0022E02C02A
:100A2000880F991F0A94E2F7842B8C930F900F90F4
:100A30000F900F900F90CF91DF910895DF93CF9398
:100A400000D000D0CDB7DEB789836A838981282F93
:100A500030E03C832B838B819C8181309105D1F0E8
:100A60002B813C81223031052CF48B819C810097B5
:100A700061F01EC02B813C812230310581F08B81D9
:100A80009C818330910581F013C0EBE3F0E08A8113
:100A900080830EC0E8E3F0E08A81808309C0E5E34B
:100AA000F0E08A81808304C0E2E3F0E08A81808301
:100AB0000F900F900F900F90CF91DF910895DF93DB
:100AC000CF9300D000D0CDB7DEB789836A83898108
:100AD000282F30E03C832B838B819C8181309105D2
:100AE00049F12B813C81223031052CF48B819C8192
:100AF000009761F05AC02B813C812230310571F1A1
:100B00008B819C8183309105E9F14FC0ABE3B0E06C
:100B1000EBE3F0E08081482F8A81282F30E081E0EC
:100B200090E0022E02C0880F991F0A94E2F78427F2
:100B30008C933BC0A8E3B0E0E8E3F0E08081482F6D
:100B40008A81282F30E081E090E0022E02C0880FD9
:100B5000991F0A94E2F784278C9327C0A5E3B0E09D
:100B6000E5E3F0E08081482F8A81282F30E081E0A2
:100B700090E0022E02C0880F991F0A94E2F78427A2
:100B80008C9313C0A2E3B0E0E2E3F0E08081482F51
:100B90008A81282F30E081E090E0022E02C0880F89
:100BA000991F0A94E2F784278C930F900F900F906F
:100BB0000F90CF91DF910895DF93CF9300D000D0B5
:100BC0000F92CDB7DEB78A836B838A81282F30E0FE
:100BD0003D832C834C815D814130510541F18C81F5
:100BE0009D818230910534F42C813D8121153105A0
:100BF00061F052C04C815D814230510551F18C81D0
:100C00009D8183309105B9F147C0E9E3F0E080812F
:100C1000282F30E08B81882F90E0A90102C05595E4
:100C200047958A95E2F7CA018170898335C0E6E36A
:100C3000F0E08081282F30E08B81882F90E0A9019F
:100C400002C0559547958A95E2F7CA01817089835C
:100C500023C0E3E3F0E08081282F30E08B81882FF0
:100C600090E0A90102C0559547958A95E2F7CA011F
:100C70008170898311C0E0E3F0E08081282F30E0AB
:100C80008B81882F90E0A90102C0559547958A95E0
:100C9000E2F7CA018170898389810F900F900F90CC
:100CA0000F900F90CF91DF910895DF93CF9300D0F5
:100CB00000D0CDB7DEB78A838A81282F30E03C830D
:100CC0002B838B819C8181309105D1F02B813C81DC
:100CD000223031052CF48B819C81009761F01EC07D
:100CE0002B813C812230310581F08B819C818330C6
:100CF000910581F013C0E9E3F0E0808189830EC0A3
:100D0000E6E3F0E08081898309C0E3E3F0E08081DD
:100D1000898304C0E0E3F0E08081898389810F90BA
:100D20000F900F900F90CF91DF910895DF93CF93A5
:100D3000CDB7DEB7A7E2B0E0E7E2F0E080818F77E1
:100D40008C93A7E2B0E0E7E2F0E0808180648C93CE
:100D5000A7E2B0E0E7E2F0E0808180628C93A7E256
:100D6000B0E0E7E2F0E080818F7E8C93A7E2B0E014
:100D7000E7E2F0E08081877F8C93A7E2B0E0E7E2D2
:100D8000F0E0808184608C93A7E2B0E0E7E2F0E0DD
:100D900080818D7F8C93A7E2B0E0E7E2F0E0808174
:100DA0008E7F8C93A6E2B0E0E6E2F0E0808180687E
:100DB0008C93A6E2B0E0E6E2F0E080818B7F8C933A
:100DC000A6E2B0E0E6E2F0E080818D7F8C93A6E2BF
:100DD000B0E0E6E2F0E0808181608C93CF91DF911A
:100DE0000895DF93CF930F92CDB7DEB71982A6E2B5
:100DF000B0E0E6E2F0E0808180648C93E6E2F0E02F
:100E0000808182958F70882F90E08170907000971C
:100E1000A9F3A6E2B0E0E6E2F0E0808180618C9385
:100E2000E5E2F0E08081898389810F90CF91DF91A5
:100E30000895DF93CF9300D0CDB7DEB789836A835F
:100E400089816A8140E00E94F9020E9496060F9013
:100E50000F90CF91DF910895DF93CF9300D0CDB75E
:100E6000DEB70E94F1068A838A81882F90E0A0E095
:100E7000B0E028E833E140E050E0BC01CD010E9441
:100E8000310BDC01CB01892F9A2FAB2FBB27898334
:100E900089819AE0692F0E94500B898389810F9084
:100EA0000F90CF91DF910895DF93CF9300D0CDB70E
:100EB000DEB780E06FE00E94EB030E9466021A82B8
:100EC000198225C080E069EF0E941E0584E090E051
:100ED0000E94900280E06AEF0E941E0584E090E08C
:100EE0000E94900280E066EF0E941E0584E090E080
:100EF0000E94900280E065EF0E941E0584E090E071
:100F00000E94900289819A8101969A8389838981BE
:100F10009A818F3F9105B1F2A8F20F900F90CF9177
:100F2000DF910895DF93CF9300D0CDB7DEB780E097
:100F30006FE00E94EB030E9466021A82198225C0AC
:100F400080E06AEF0E941E0584E090E00E9490021B
:100F500080E069EF0E941E0584E090E00E9490020C
:100F600080E065EF0E941E0584E090E00E94900200
:100F700080E066EF0E941E0584E090E00E949002EF
:100F800089819A8101969A83898389819A818F3F89
:100F90009105B1F2A8F20F900F90CF91DF910895D3
:100FA000DF93CF9300D0CDB7DEB789836A83898181
:100FB000809386048A818093870489816A8141E0D5
:100FC0000E94F9020F900F90CF91DF910895DF9367
:100FD000CF93CDB7DEB78091860490918704692FB7
:100FE00041E00E942C04CF91DF910895DF93CF93CD
:100FF000CDB7DEB78091860490918704692F40E0D9
:101000000E942C04CF91DF910895DF93CF9300D0FD
:10101000CDB7DEB789836A838981809388048A810A
:101020008093890489816A8141E00E94F9020F90CE
:101030000F90CF91DF910895DF93CF93CDB7DEB7B7
:101040008091880490918904692F41E00E942C04CA
:10105000CF91DF910895DF93CF93CDB7DEB7809125
:10106000880490918904692F40E00E942C04CF915C
:10107000DF910895DF93CF9300D0CDB7DEB789839A
:101080006A83898180938A048A8180938B04898111
:101090006A8141E00E94F90289816A8140E00E94F0
:1010A0002C040F900F90CF91DF910895DF93CF9391
:1010B000CDB7DEB780918A0490918B04692F0E948E
:1010C0005F05CF91DF910895DF93CF9300D000D0DB
:1010D000CDB7DEB79C838B831A82198206C08A81C2
:1010E0008F5F8A8389818F5F89838981282F30E090
:1010F0008B819C81FC01E20FF31F8081882379F7AB
:101100008A810F900F900F900F90CF91DF910895EB
:10111000DF93CF93CDB7DEB728970FB6F894DEBF35
:101120000FBECDBF9E838D8378876F838D819E8117
:101130000E9464088B838F8198850E9464088A834B
:101140009B818A81981719F08FEF8C833CC019829C
:101150002FC08981282F30E08D819E81FC01E20F14
:10116000F31F40818981282F30E08F819885FC0111
:10117000E20FF31F80814817B9F08981282F30E0F2
:101180008D819E81FC01E20FF31F40818981282F10
:1011900030E08F819885FC01E20FF31F8081942F4E
:1011A000981B892F8C830FC01C8289818F5F898354
:1011B0008981282F30E08D819E81FC01E20FF31F91
:1011C0008081882331F68C8128960FB6F894DEBF93
:1011D0000FBECDBFCF91DF910895DF93CF93CDB7F1
:1011E000DEB765970FB6F894DEBF0FBECDBF81E0C6
:1011F00060E00E94050881E063E00E94D00782E081
:1012000090E060E070E00E943A0880E064E00E94B4
:10121000190780E895E20E9449001D8A1C8A1B8AF2
:101220001A8A81E0898B188A1F861E861D861C8675
:101230001B8680E690E00E94C6000CC00E941C083D
:1012400088EE93E00E9490020E942B0888EE93E0C3
:101250000E9490028A89813089F38889882309F065
:1012600073C088E890E00E94C6000E9404019A873B
:1012700089878E858F5F8E87188653C01F8223C013
:101280008F81882F90E0880F991F880F991F880FF2
:10129000991F9C01220F331F220F331F820F931FB0
:1012A0008B529D4F29853A85B9010E948808882371
:1012B00039F481E08D8B8F818F8781E0888B1B864D
:1012C0008F818F5F8F838F818A3018F48D89813071
:1012D000B9F68D89882311F58885882369F486EA13
:1012E00090E00E94C6000E9404019A8789878E853B
:1012F0008F5F8E871B8612C08885823011F41B8613
:1013000018C086EA90E00E94C6000E9404019A87F5
:1013100089878E858F5F8E8781E08B8788858F5F39
:1013200088878885823008F4A9CF8B85813009F4BD
:10133000A5CF8E85833009F08DCF8D89882309F064
:1013400089CF81E08A8B86CF8889813009F064C09B
:1013500088ED90E00E94C6000E9404019E838D8368
:101360008D858F5F8D871C8244C08F85882F90E08C
:10137000880F991F880F991F880F991F9C01220FB2
:10138000331F220F331F820F931F44968B529D4FA2
:101390002D813E81B9010E948808882331F481E0C3
:1013A0008C8B82E0888B1B8621C08C81882361F422
:1013B00087EF90E00E94C6000E9404019E838D8307
:1013C0008D858F5F8D8712C08C81823011F41B86D2
:1013D00018C087EF90E00E94C6000E9404019E831F
:1013E0008D838D858F5F8D8781E08B878C818F5F6B
:1013F0008C838C81823008F4B8CF8B85813009F4DE
:10140000B4CF8D85833009F025CF8C89882309F0EE
:1014100021CF81E08A8B1ECF8889823021F0888994
:10142000833009F017CF8889823049F48CE291E04B
:101430000E94C60083E0888B81E08B8B0BCF88896C
:10144000833009F007CF0E9404019B838A838A813D
:101450009B8122E731E0B9010E948808882369F462
:101460001B8A88E791E00E94C600188A1A8A1C8AA3
:101470001D8A1F861E861D86EDCE8A819B8129E8E6
:1014800031E0B9010E948808882351F40E94D201FA
:1014900084E60E9411028FE891E00E94C600DACE35
:1014A0008A819B8127EA31E0B9010E94880888235C
:1014B00039F40E943C028DEA91E00E94C600CACE37
:1014C0008A819B8123EC31E0B9010E94880888233E
:1014D00061F48989882349F40E94540789EC91E0DA
:1014E0000E94C60081E0898BB5CE8A819B8123EC66
:1014F00031E0B9010E948808882341F4898981304C
:1015000029F489ED91E00E94C600A4CE8A819B81D6
:1015100021EF31E0B9010E948808882359F48989B4
:10152000813041F40E94920787EF91E00E94C6004B
:10153000198A90CE8A819B8121EF31E0B9010E9406
:101540008808882341F48989882329F489E092E076
:101550000E94C6007FCE8A819B8123E232E0B901DE
:101560000E948808882351F40E94D20189E10E94D8
:10157000110289E292E00E94C6006CCE8A819B81B2
:1015800020E432E0B9010E948808882351F40E94C7
:10159000D20182E30E94110286E492E00E94C6001A
:1015A00059CE8A819B812DE532E0B9010E948808DD
:1015B000882351F40E94D2018BE40E94110283E639
:1015C00092E00E94C60046CE8A819B812AE732E0E3
:1015D000B9010E9488088823C1F48C85882349F4C6
:1015E0000E94560880E892E00E94C60081E08C8745
:1015F00031CE8C85813009F02DCE0E9456088AE8C4
:1016000092E00E94C6001C8625CE8A819B8125E936
:1016100032E0B9010E9488088823B9F40E942C079F
:101620000E942C0789838BE992E00E94C600898181
:10163000882F90E0A0E0B0E0BC01CD010E942F0116
:1016400084EB92E00E94C60005CE86EB92E00E94F9
:10165000C60000CEDF93CF93CDB7DEB70E94ED0872
:10166000FFCF629FD001739FF001829FE00DF11DBB
:10167000649FE00DF11D929FF00D839FF00D749F0C
:10168000F00D659FF00D9927729FB00DE11DF91FB8
:10169000639FB00DE11DF91FBD01CF011124089515
:1016A000991B79E004C0991F961708F0961B881FB4
:1016B0007A95C9F780950895AA1BBB1B51E107C015
:1016C000AA1FBB1FA617B70710F0A61BB70B881FD2
:1016D000991F5A95A9F780959095BC01CD01089561
:1016E000A1E21A2EAA1BBB1BFD010DC0AA1FBB1F26
:1016F000EE1FFF1FA217B307E407F50720F0A21B98
:10170000B30BE40BF50B661F771F881F991F1A9404
:1017100069F760957095809590959B01AC01BD012E
:08172000CF010895F894FFCFFA
:101728000A57656C636F6D6520746F207468652057
:101738004D6F62696C6520436F6E74726F6C6C6577
:101748006420486F6D650A00506C6561736520659B
:101758006E74657220796F757220757365726E612B
:101768006D653A200A000A57726F6E6720557365D7
:10177800726E616D652C20506C6561736520656EB5
:1017880074657220612076616C6964207573657276
:101798006E616D653A200A000A506C6561736520B8
:1017A800656E74657220796F7572207061737377D6
:1017B8006F72643A200A0057726F6E672050617327
:1017C80073776F72642C20506C6561736520456E69
:1017D8007465722074686520436F72726563742043
:1017E80050617373776F72643A200A000A436F720C
:1017F800726563742050617373776F72640A596FEE
:10180800752063616E207573652074686520627544
:1018180074746F6E732062656C6F7720746F2063C9
:101828006F6E74726F6C20796F757220686F6D655A
:101838000A00434D44303400596F75207369676E50
:101848006564206F7574210A00434D443030004CA4
:10185800454420696E74656E7369747920697320D4
:1018680031303025200A00434D443031004C454486
:1018780020696E74656E73697479206973203025E8
:10188800200A00434D44303200446F6F7220697360
:10189800204C6F636B65640A00446F6F7220697334
:1018A80020416C7265616479206C6F636B65640AB2
:1018B80000434D44303300446F6F722069732055E4
:1018C8006E6C6F636B65640A00446F6F7220697396
:1018D80020416C726561647920756E6C6F636B650D
:1018E800640A00434D443035004C454420696E7409
:1018F800656E7369747920697320323525200A0072
:10190800434D443036004C454420696E74656E730F
:1019180069747920697320353025200A00434D44C5
:101928003037004C454420696E74656E736974796C
:1019380020697320373525200A00434D443039008B
:101948004143206973204F4E0A00414320697320A8
:101958004F46460A00434D443038005468652054C9
:10196800656D7065726174757265206E6F77206938
:10197800733A20000A00506C6561736520656E74C7
:10198800657220612070726F70657220636F6D6D73
:10199800616E640A004F6D6172204164656C0000DD
:1019A8000000000000000000004669727374506176
:1019B8007373776F72640000000000000041686D67
:1019C800656420416264656C68616D69640000004B
:1019D800005365636F6E6450617373776F72640050
:1019E80000000000004D61796172205761656C004C
:1019F8000000000000000000005468697264506133
:101A08007373776F7264000000000000004F6D610F
:101A180072204B686564720000000000000000003E
:101A280000466F7572746850617373776F726400E3
:101A3800000000000041686D65642053686F6B7298
:101A48007900000000000000004669667468506173
:101A58007373776F7264000000000000004D6179B5
:101A680061722048657765696479000000000000AC
:101A780000536978746850617373776F72640000FB
:101A880000000000006F6D6172206164656C206B5E
:101A9800686564720000000000536576656E7468BE
:101AA80050617373776F7264000000000061686DA5
:101AB80065642073686F6B72790000000000000095
:101AC80000456967746850617373776F72640000CA
:101AD80000000000006D61796172207761656C20FB
:101AE8006B616D616C000000004E696E7468506136
:101AF8007373776F7264000000000000004B686524
:101B080064720000000000000000000000000000F7
:101B18000054656E746850617373776F7264000067
:061B2800000000000000B7
:00000001FF
